:020000040800F2
:1000000000000820410E0008F5050008F70500086B
:10001000F9050008FB050008FD05000800000000C8
:10002000000000000000000000000000FF050008C4
:10003000010600080000000003060008050600088D
:10004000910E0008910E0008910E0008910E000814
:10005000910E0008910E0008910E0008910E000804
:10006000910E0008910E0008910E0008910E0008F4
:10007000910E0008910E0008910E0008910E0008E4
:10008000910E0008910E0008910E0008910E0008D4
:10009000910E0008910E0008910E0008910E0008C4
:1000A000910E0008910E0008910E0008910E0008B4
:1000B000910E0008910E0008910E0008910E0008A4
:1000C000910E0008910E0008910E0008910E000894
:1000D000910E0008910E0008910E0008910E000884
:1000E000910E0008910E0008910E0008910E000874
:1000F000910E0008910E0008910E0008910E000864
:10010000910E0008910E0008910E0008910E000853
:10011000910E0008910E0008910E0008910E000843
:10012000910E0008910E0008910E0008910E000833
:10013000910E0008910E0008910E0008910E000823
:10014000910E0008910E0008910E0008910E000813
:10015000910E0008910E0008910E0008910E000803
:10016000910E0008910E0008910E0008910E0008F3
:10017000910E0008910E0008910E0008000000008A
:10018000910E0008910E0008910E0008910E0008D3
:10019000910E0008910E0008910E0008910E0008C3
:1001A000910E0008910E0008910E0008910E0008B3
:1001B000910E0008910E0008910E0008910E0008A3
:1001C000910E0008910E000800000000910E00083A
:1001D000910E0008910E0008910E0008910E000883
:1001E000910E0008910E0008910E0008910E000873
:0801F000910E0008910E0008B9
:1001F80010B5054C237833B9044B13B10448AFF359
:1002080000800123237010BD0C00002000000000B6
:10021800DC0E000808B5034B1BB103490348AFF3D4
:10022800008008BD0000000010000020DC0E00085F
:1002380053B94AB9002908BF00281CBF4FF0FF3145
:100248004FF0FF3000F074B9ADF1080C6DE904CE41
:1002580000F006F8DDF804E0DDE9022304B0704799
:100268002DE9F047089E04468846002B40F085801B
:100278008A42154648D9B2FA82F24AB1C2F1200739
:1002880001FA02F320FA07F7954047EA0308944079
:100298004FEA154E230CB8FBFEF71FFA85FC0EFB40
:1002A800178843EA084307FB0CF1994209D9EB1870
:1002B80007F1FF3080F0E380994240F2E080023F8E
:1002C8002B445B1AA4B2B3FBFEF00EFB103344EAD6
:1002D800034400FB0CFCA44509D92C1900F1FF3399
:1002E80080F0CB80A44540F2C88002382C4440EA14
:1002F8000740A4EB0C0400271EB1D4400023C6E934
:1003080000433946BDE8F087002A53D0B2FA82F29A
:10031800002A40F0B680491B4FEA154E1FFA85F8AF
:100328000127B1FBFEFC230C0EFB1C1143EA014321
:1003380008FB0CF1994207D9EB180CF1FF3002D2F7
:10034800994200F2EC808446591AA3B2B1FBFEF040
:100358000EFB101443EA044408FB00F8A04507D933
:100368002C1900F1FF3302D2A04500F2DC801846B8
:10037800A4EB080440EA0C40BEE78B4208D9002EE3
:1003880078D00027C6E9000138463946BDE8F0872D
:10039800B3FA83F77FB98B4202D3824200F2BD8061
:1003A800841A61EB030301209846002EA9D0C6E900
:1003B8000048A6E7FFDEC7F12005BB4022FA05FC8E
:1003C8004CEA030C01FA07F420FA05F821FA05F3C0
:1003D8004FEA1C4E48EA0404B3FBFEF9210C0EFB5D
:1003E80019331FFA8CF841EA034309FB08FA9A45C6
:1003F80002FA07F200FA07F10BD91CEB030309F123
:10040800FF3080F088809A4540F28580A9F1020982
:100418006344A3EB0A03A4B2B3FBFEF00EFB103354
:1004280044EA034400FB08F8A04508D91CEB04047F
:1004380000F1FF336BD2A04569D90238644440EA21
:100448000940A4EB0804A0FB02894C45C6464B466C
:1004580054D351D0002E69D0B1EB0E0264EB0304E3
:1004680004FA05F522FA07F3FC401D43C6E90054D7
:10047800002746E73746304643E7184637E707463A
:100488001FE7C2F1200320FA03F7954001FA02F0B2
:1004980021FA03F34FEA154E3843010CB3FBFEF77C
:1004A8001FFA85F80EFB173341EA034107FB08F3EF
:1004B8008B4204FA02F407D9691807F1FF3C28D2E5
:1004C8008B4226D9023F2944CB1A81B2B3FBFEF0F6
:1004D8000EFB103341EA034100FB08F38B4207D9B6
:1004E800691800F1FF3C10D28B420ED9023829441A
:1004F800C91A40EA074714E74145ABD2B8EB020EE8
:1005080069EB0C0201381346A4E76046F0E7184689
:1005180095E76746D8E781467BE7384645E7ACF17B
:10052800020C2B4410E702382C4421E73746E8E652
:10053800704700BFFEE7000000B595B0244B1A6C69
:1005480042F080521A641B6C03F080530093009BA6
:10055800204A136823F4404343F48043136013682C
:1005680003F440430193019B0223079301230A9359
:1005780010230B9300230D9307A800F0FDF8F0B9A2
:100588000F2302930021039104910591069102A87B
:1005980000F02EFBB8B900F0DDFB0F4BA3FB0030D9
:1005A800800900F0BDF8042000F0D0F800221146C0
:1005B8004FF0FF3000F082F815B05DF804FB8B2196
:1005C8000648FFF7B7FF99210448FFF7B3FF00BFBC
:1005D8000038024000700040D34D6210F40E00084D
:1005E80008B500F0E3FBFFF7A7FFFEE77047FEE75B
:1005F800FEE7FEE7FEE770477047704708B500F072
:10060800E1FB00F0B4F808BD00B583B0214B1A6CCB
:1006180042F080521A641A6C02F080520092009ADA
:100628005A6C42F480425A645B6C03F48043019331
:10063800019B032000F030F8002211466FF00B00F8
:1006480000F03CF8002211466FF00A0000F036F87E
:10065800002211466FF0090000F030F80022114620
:100668006FF0040000F02AF8002211466FF0030032
:1006780000F024F8002211466FF0010000F01EF887
:10068800002211464FF0FF3000F018F803B05DF873
:1006980004FB00BF003802400649CB6823F4E0633E
:1006A8001B041B0C000200F4E0600343024A1A43D7
:1006B800CA60704700ED00E00000FA0530B4154B41
:1006C800DB68C3F30223C3F10704042C28BF042406
:1006D8001D1D062D01D9033B00E000234FF0FF3517
:1006E80005FA04F421EA0401994005FA03F322EA21
:1006F80003031943002805DB0901C9B2064B195445
:1007080030BC704700F00F000901C9B2034B1954FF
:10071800F6E700BF00ED00E000E400E014ED00E0C3
:100728000138B0F1807F0AD2064B5860064AF021A2
:1007380082F823100020986007221A607047012071
:10074800704700BF10E000E000ED00E0042805D08D
:10075800054A136823F0040313607047024A1368BC
:1007680043F004031360704710E000E0704708B5D9
:10077800FFF7FCFF08BD0000002800F0DA8170B523
:1007880082B00446036813F0010F29D0A74B9B6879
:1007980003F00C03042B1AD0A44B9B6803F00C0342
:1007A800082B0FD06368B3F5803F40D0002B54D19D
:1007B8009E4B1A6822F480321A601A6822F480224A
:1007C8001A6039E0994B5B6813F4800FEAD0974BB5
:1007D8001B6813F4003F03D06368002B00F0AB8163
:1007E800236813F0020F74D0904B9B6813F00C0F22
:1007F8005ED08E4B9B6803F00C03082B53D0E36844
:10080800002B00F08980894A136843F001031360C4
:1008180000F0E4FA0546854B1B6813F0020F72D10D
:1008280000F0DCFA401B0228F5D9032088E17F4A52
:10083800136843F48033136063682BB300F0CEFA77
:1008480005467A4B1B6813F4003FC9D100F0C6FA7D
:10085800401B6428F5D9032072E1B3F5A02F09D015
:10086800724B1A6822F480321A601A6822F48022C5
:100878001A60E1E76D4B1A6842F480221A601A6820
:1008880042F480321A60D7E700F0A8FA0546674BB1
:100898001B6813F4003FA3D000F0A0FA401B6428A3
:1008A800F5D903204CE1614B5B6813F4800FA6D1A6
:1008B8005E4B1B6813F0020F03D0E368012B40F076
:1008C8003C815A4A136823F0F803216943EAC103BB
:1008D8001360236813F0080F46D0636983B3534A43
:1008E800536F43F00103536700F078FA05464F4B06
:1008F8005B6F13F0020F37D100F070FA401B02282B
:10090800F5D903201CE1494A136823F0F80321694B
:1009180043EAC1031360DCE7444A136823F0010388
:10092800136000F05BFA0546404B1B6813F0020F9A
:10093800CFD000F053FA401B0228F5D90320FFE07E
:100948003A4A536F23F00103536700F047FA05460C
:10095800364B5B6F13F0020F06D000F03FFA401BD6
:100968000228F5D90320EBE0236813F0040F7DD0AB
:100978002E4B1B6C13F0805F1ED12C4B1A6C42F06F
:1009880080521A641B6C03F080530193019B01256C
:10099800274B1B6813F4807F10D0A368012B21D04C
:1009A800002B37D1214B1A6F22F001021A671A6FF8
:1009B80022F004021A671AE00025E9E71C4A1368C6
:1009C80043F48073136000F009FA0646184B1B685D
:1009D80013F4807FE1D100F001FA801B6428F5D977
:1009E8000320ADE0114A136F43F001031367A368B6
:1009F80053B300F0F3F906460C4B1B6F13F0020FCC
:100A080033D100F0EBF9801B41F288339842F3D9D7
:100A1800032095E0052B0DD0044B1A6F22F001023C
:100A28001A671A6F22F004021A67E0E700380240DA
:100A380000700040444B1A6F42F004021A671A6FA4
:100A480042F001021A67D2E700F0C8F906463E4BA9
:100A58001B6F13F0020F08D000F0C0F9801B41F2A1
:100A680088339842F3D903206AE0F5B9A369002BCB
:100A780065D0354A926802F00C02082A62D0022B2F
:100A880019D0314A136823F08073136000F0A6F977
:100A980004462D4B1B6813F0007F48D000F09EF9E8
:100AA800001B0228F5D903204AE0274A136C23F0DB
:100AB80080531364DAE7244A136823F080731360C1
:100AC80000F08CF90546204B1B6813F0007F06D018
:100AD80000F084F9401B0228F5D9032030E0E369CF
:100AE800226A1343626A43EA8213A26A5208013AED
:100AF80043EA0243E26A43EA0263226B43EA02736F
:100B0800114A5360136843F08073136000F066F96C
:100B180004460D4B1B6813F0007F06D100F05EF908
:100B2800001B0228F5D903200AE0002008E0002075
:100B380006E001207047012002E0012000E00020CB
:100B480002B070BD0120FBE700380240254B9B68CE
:100B580003F00C03042B40D0082B40D170B5214B77
:100B68005A6802F03F025B6813F4800F12D01D4BE5
:100B78005968C1F3881100231B48A1FB0001FFF746
:100B880057FB184B5B68C3F3014301335B00B0FBB1
:100B9800F3F070BD134B5868C0F388100546002663
:100BA80043011B1A66EB0604A10141EA936198010F
:100BB800C01A61EB0401CB0043EA5073C400194624
:100BC800601946EB01018B0243EA905384022046E8
:100BD80019463346FFF72CFBD3E703487047034811
:100BE800704700BF0038024040787D010024F400BF
:100BF800002800F09F8070B50446524B1B6803F034
:100C08000F038B420BD24F4A136823F00F030B4399
:100C18001360136803F00F038B4240F08D80236844
:100C280013F0020F17D013F0040F04D0464A93684C
:100C380043F4E0539360236813F0080F04D0424A4A
:100C4800936843F4604393603F4A936823F0F0034A
:100C5800A068034393600D46236813F0010F31D059
:100C68006368012B20D0022B25D0374A126812F076
:100C7800020F63D034498A6822F0030213438B6061
:100C880000F0ACF80646304B9B6803F00C03626832
:100C9800B3EB820F16D000F0A1F8801B41F2883325
:100CA8009842F0D9032044E0274A126812F4003F22
:100CB800E0D101203DE0244A126812F0007FD9D12A
:100CC800012036E01F4B1B6803F00F03AB420AD923
:100CD8001C4A136823F00F032B431360136803F0B7
:100CE8000F03AB422CD1236813F0040F06D0164A29
:100CF800936823F4E053E1680B439360236813F08F
:100D0800080F07D0104A936823F46043216943EA27
:100D1800C1039360FFF71AFF0B4B9B68C3F30313E0
:100D28000A4AD35CD8400A4B1860002000F018F833
:100D3800002070BD012070470120FAE70120F8E784
:100D48000120F6E7003C024000380240000F00088E
:100D580008000020014B1868704700BF08000020F9
:100D680010B504460E4B18784FF47A73B3FBF0F3C2
:100D78000C4A1068B0FBF3F0FFF7D2FC68B90F2CEF
:100D880001D901200AE0002221464FF0FF30FFF789
:100D980095FC054B1C60002000E0012010BD00BF41
:100DA80000000020080000200400002008B50320EF
:100DB800FFF772FC0020FFF7D3FFFFF725FC0020A8
:100DC80008BD0000034A1168034B1B780B441360ED
:100DD800704700BF2800002000000020014B186861
:100DE800704700BF2800002010B40F4AD2F888309E
:100DF80043F47003C2F888300C4B196841F00101C4
:100E08001960002098601C68094921401960094947
:100E18005960196821F480211960D8604FF0006387
:100E280093605DF8044B704700ED00E00038024025
:100E3800FFFFF6FE10300024DFF834D0002103E075
:100E48000C4B5B58435004310B480C4B42189A42E8
:100E5800F6D30B4A02E0002342F8043B094B9A42BE
:100E6800F9D3FFF7C1FF00F011F8FFF7B9FB70479E
:100E780000000820200F0008000000200C000020BF
:100E88000C0000202C000020FEE7000070B50D4D7E
:100E98000D4C641BA4100026A64209D10B4D0C4C26
:100EA80000F018F8641BA4100026A64205D170BDF6
:100EB80055F8043B98470136EEE755F8043B984748
:100EC8000136F2E7180F0008180F0008180F00087D
:100ED8001C0F0008F8B500BFF8BC08BC9E46704758
:0C0EE800F8B500BFF8BC08BC9E4670477F
:100EF4005372632F6D61696E2E6300000000000061
:0C0F0400000000000102030406070809B9
:080F100058F3FF7F010000000F
:040F18001D020008AE
:040F1C00F9010008CF
:0C0F200001000000100000000024F4009C
:0400000508000E41A0
:00000001FF
